{
  "contractName": "ImageHashes",
  "abi": [
    {
      "inputs": [],
      "payable": false,
      "stateMutability": "nonpayable",
      "type": "constructor"
    },
    {
      "constant": true,
      "inputs": [],
      "name": "count",
      "outputs": [
        {
          "internalType": "uint256",
          "name": "",
          "type": "uint256"
        }
      ],
      "payable": false,
      "stateMutability": "view",
      "type": "function"
    },
    {
      "constant": true,
      "inputs": [
        {
          "internalType": "uint256",
          "name": "",
          "type": "uint256"
        }
      ],
      "name": "images",
      "outputs": [
        {
          "internalType": "uint256",
          "name": "id",
          "type": "uint256"
        },
        {
          "internalType": "address",
          "name": "owner",
          "type": "address"
        },
        {
          "internalType": "uint256",
          "name": "vote",
          "type": "uint256"
        },
        {
          "internalType": "string",
          "name": "hash",
          "type": "string"
        }
      ],
      "payable": false,
      "stateMutability": "view",
      "type": "function"
    },
    {
      "constant": true,
      "inputs": [],
      "name": "peopleVoted",
      "outputs": [
        {
          "internalType": "uint256",
          "name": "",
          "type": "uint256"
        }
      ],
      "payable": false,
      "stateMutability": "view",
      "type": "function"
    },
    {
      "constant": false,
      "inputs": [
        {
          "internalType": "string",
          "name": "_hash",
          "type": "string"
        }
      ],
      "name": "addImage",
      "outputs": [],
      "payable": false,
      "stateMutability": "nonpayable",
      "type": "function"
    },
    {
      "constant": false,
      "inputs": [
        {
          "internalType": "uint256",
          "name": "_id",
          "type": "uint256"
        }
      ],
      "name": "voteImage",
      "outputs": [],
      "payable": false,
      "stateMutability": "nonpayable",
      "type": "function"
    },
    {
      "constant": true,
      "inputs": [
        {
          "internalType": "uint256",
          "name": "_id",
          "type": "uint256"
        }
      ],
      "name": "getVote",
      "outputs": [
        {
          "internalType": "uint256",
          "name": "",
          "type": "uint256"
        }
      ],
      "payable": false,
      "stateMutability": "view",
      "type": "function"
    },
    {
      "constant": true,
      "inputs": [
        {
          "internalType": "uint256",
          "name": "_id",
          "type": "uint256"
        }
      ],
      "name": "getHash",
      "outputs": [
        {
          "internalType": "string",
          "name": "",
          "type": "string"
        }
      ],
      "payable": false,
      "stateMutability": "view",
      "type": "function"
    },
    {
      "constant": true,
      "inputs": [],
      "name": "getCount",
      "outputs": [
        {
          "internalType": "uint256",
          "name": "",
          "type": "uint256"
        }
      ],
      "payable": false,
      "stateMutability": "view",
      "type": "function"
    }
  ],
  "bytecode": "0x608060405234801561001057600080fd5b506000808190555060006001819055506108c68061002f6000396000f3fe608060405234801561001057600080fd5b50600436106100885760003560e01c80636b2fafa91161005b5780636b2fafa9146101d65780636d03c1791461027d578063848564821461029b578063a87d942c1461038357610088565b806306661abd1461008d578063166f1779146100ab5780634913a3f8146101665780635a55c1f014610194575b600080fd5b6100956103a1565b6040518082815260200191505060405180910390f35b610164600480360360208110156100c157600080fd5b81019080803590602001906401000000008111156100de57600080fd5b8201836020820111156100f057600080fd5b8035906020019184600183028401116401000000008311171561011257600080fd5b91908080601f016020809104026020016040519081016040528093929190818152602001838380828437600081840152601f19601f8201169050808301925050505050505091929192905050506103a7565b005b6101926004803603602081101561017c57600080fd5b8101908080359060200190929190505050610483565b005b6101c0600480360360208110156101aa57600080fd5b810190808035906020019092919050505061061d565b6040518082815260200191505060405180910390f35b610202600480360360208110156101ec57600080fd5b810190808035906020019092919050505061063d565b6040518080602001828103825283818151815260200191508051906020019080838360005b83811015610242578082015181840152602081019050610227565b50505050905090810190601f16801561026f5780820380516001836020036101000a031916815260200191505b509250505060405180910390f35b6102856106f5565b6040518082815260200191505060405180910390f35b6102c7600480360360208110156102b157600080fd5b81019080803590602001909291905050506106fb565b604051808581526020018473ffffffffffffffffffffffffffffffffffffffff1673ffffffffffffffffffffffffffffffffffffffff16815260200183815260200180602001828103825283818151815260200191508051906020019080838360005b8381101561034557808201518184015260208101905061032a565b50505050905090810190601f1680156103725780820380516001836020036101000a031916815260200191505b509550505050505060405180910390f35b61038b6107e3565b6040518082815260200191505060405180910390f35b60005481565b604051806080016040528060005481526020013373ffffffffffffffffffffffffffffffffffffffff168152602001600081526020018281525060026000805481526020019081526020016000206000820151816000015560208201518160010160006101000a81548173ffffffffffffffffffffffffffffffffffffffff021916908373ffffffffffffffffffffffffffffffffffffffff16021790555060408201518160020155606082015181600301908051906020019061046c9291906107ec565b509050506001600080828254019250508190555050565b600080905060008090505b600154811015610513573373ffffffffffffffffffffffffffffffffffffffff166003600083815260200190815260200160002060009054906101000a900473ffffffffffffffffffffffffffffffffffffffff1673ffffffffffffffffffffffffffffffffffffffff161415610506576001820191505b808060010191505061048e565b506000811461052157600080fd5b3373ffffffffffffffffffffffffffffffffffffffff166002600084815260200190815260200160002060010160009054906101000a900473ffffffffffffffffffffffffffffffffffffffff1673ffffffffffffffffffffffffffffffffffffffff16141561059057600080fd5b600160026000848152602001908152602001600020600201600082825401925050819055503360036000600154815260200190815260200160002060006101000a81548173ffffffffffffffffffffffffffffffffffffffff021916908373ffffffffffffffffffffffffffffffffffffffff160217905550600180600082825401925050819055505050565b600060026000838152602001908152602001600020600201549050919050565b6060600260008381526020019081526020016000206003018054600181600116156101000203166002900480601f0160208091040260200160405190810160405280929190818152602001828054600181600116156101000203166002900480156106e95780601f106106be576101008083540402835291602001916106e9565b820191906000526020600020905b8154815290600101906020018083116106cc57829003601f168201915b50505050509050919050565b60015481565b60026020528060005260406000206000915090508060000154908060010160009054906101000a900473ffffffffffffffffffffffffffffffffffffffff1690806002015490806003018054600181600116156101000203166002900480601f0160208091040260200160405190810160405280929190818152602001828054600181600116156101000203166002900480156107d95780601f106107ae576101008083540402835291602001916107d9565b820191906000526020600020905b8154815290600101906020018083116107bc57829003601f168201915b5050505050905084565b60008054905090565b828054600181600116156101000203166002900490600052602060002090601f016020900481019282601f1061082d57805160ff191683800117855561085b565b8280016001018555821561085b579182015b8281111561085a57825182559160200191906001019061083f565b5b509050610868919061086c565b5090565b61088e91905b8082111561088a576000816000905550600101610872565b5090565b9056fea265627a7a72315820a9808f371e2d7652311370fd21f9d7e63a578d579c14822d4f69a9a689bb278c64736f6c63430005100032",
  "source": "pragma solidity ^0.5.0;\n\ncontract ImageHashes {\n    struct Image {\n        uint id;\n        address owner;\n        uint vote;\n        string hash;\n    }\n    uint public count;\n    uint public peopleVoted;\n    mapping(uint=>Image) public images;\n    mapping(uint=>address) alreadyVoted;\n    constructor() public {\n        count = 0;\n        peopleVoted = 0;\n    }\n    function addImage(string memory _hash) public {\n        images[count] = Image(count,msg.sender,0,_hash);\n        count += 1;\n    }\n    function voteImage(uint _id) public {\n        uint temp = 0;\n        for(uint i = 0; i < peopleVoted; i++) {\n            if(alreadyVoted[i] == msg.sender) {\n                temp += 1;\n            }\n        }\n        require(temp == 0);\n        require(images[_id].owner!= msg.sender);\n        images[_id].vote += 1;\n        alreadyVoted[peopleVoted] = msg.sender;\n        peopleVoted += 1;\n    }\n    function getVote(uint _id) public view returns(uint) {\n        return images[_id].vote;\n    }\n    function getHash(uint _id) public view returns(string memory) {\n        return images[_id].hash;\n    }\n    function getCount() public view returns(uint) {\n        return count;\n    }\n}\n",
  "sourcePath": "/home/bhaskar/Desktop/Me/projects/take2/IPFS_Gallery/src/contracts/ImageHashes.sol",
  "compiler": {
    "name": "solc",
    "version": "0.5.16+commit.9c3226ce.Emscripten.clang"
  },
  "schemaVersion": "3.0.23",
  "updatedAt": "2020-04-14T19:58:54.268Z",
  "networkType": "ethereum",
  "devdoc": {
    "methods": {}
  },
  "userdoc": {
    "methods": {}
  }
}